:020000040800F2
:10000000E8410020650200086D0200086F02000848
:100010007102000873020008750200080000000069
:10002000000000000000000000000000A90100081E
:100030007902000800000000FD0100081D10000802
:100040007F0200087F0200087F0200087F0200088C
:100050007F0200087F0200087F0200087F0200087C
:100060007F0200087F0200087F0200087F0200086C
:100070007F0200087F0200087F0200087F0200085C
:100080007F0200087F0200087F02000800000000D5
:100090000000000000000000000000007F020008D7
:1000A0007F0200087F0200087F0200087F0200082C
:1000B0007F020008151100087F0200087F02000877
:1000C0007F0200087F0200087F0200087F0200080C
:1000D0007F0200087F0200087F0200080000000085
:1000E0007F0200087F0200087F0200080000000075
:1000F0000000000000000000000000007F02000877
:10010000000000007F0200087F0200087F02000854
:1001100000000000000000000000000000000000DF
:100120007F0200087F0200087F0200087F020008AB
:100130007F02000800000000000000000000000036
:100140000000000000000000000000007F02000826
:100150007F0200087F0200087F0200087F0200087B
:100160007F0200087F02000800000000000000007D
:10017000000000000000000000000000000000007F
:10018000000000007F0200080000000000000000E6
:100190007F020008DFF80CD000F0D8F800480047D4
:1001A000C1150008E84100202B4B19680868B0E829
:1001B000F04F80F30988BFF36F8F4FF0000080F39A
:1001C000118870470000000006480068006880F34E
:1001D000088862B661B6BFF34F8FBFF36F8F00DF41
:1001E00000BF00BF08ED00E0DFF80C00016841F43B
:1001F00070010160704700BF88ED00E0EFF30980F7
:10020000BFF36F8F144B1A681EF0100F08BF20ED5C
:10021000108A20E9F04F106008B44FF0500080F3CE
:100220001188BFF34F8FBFF36F8F01F083FE4FF044
:10023000000080F3118808BC19680868B0E8F04F26
:100240001EF0100F08BFB0EC108A80F30988BFF3CE
:100250006F8F704700BF00BF40000020EFF30580A4
:10026000704700000648804706480047FEE7FEE763
:10027000FEE7FEE7FEE7FEE7FEE7FEE7FEE7FEE756
:10028000C1100008950100082DE9F05F0546002027
:1002900092469B4688460646814640241BE02846F7
:1002A00041464746224600F041F853465A46C01A96
:1002B000914110D311461846224600F028F82D1A15
:1002C00067EB01084F4622460120002100F01FF88D
:1002D00017EB00094E41201EA4F10104DFDC484663
:1002E00031462A464346BDE8F09F40EA01039B079A
:1002F00003D009E008C9121F08C0042AFAD203E09B
:1003000011F8013B00F8013B521EF9D27047202A38
:1003100004DB203A00FA02F1002070479140C2F15C
:10032000200320FA03F3194390407047202A04DB8E
:10033000203A21FA02F00021704721FA02F3D0405E
:10034000C2F120029140084319467047064C074D00
:1003500006E0E06840F0010394E807009847103495
:10036000AC42F6D3FFF71AFF2C2800084C280008EF
:100370002DE9F84FDFF860B100224FF001084FF08F
:10038000030A4FF00F090BF1040E00BF0B6808FAC7
:1003900002F42340A3426ED14D68022D01D0122DEC
:1003A0000ED1D50800EB850CDCF820505607F70E6F
:1003B00009FA07F6B5430E69BE402E43CCF820601B
:1003C000066855000F790AFA05FC07F0030726EACC
:1003D0000C06AF40374307604E68012E05D0022E51
:1003E00003D0112E01D0122E0ED18668CF6826EAD6
:1003F0000C06AF40374387604668A6430C79C4F3C8
:100400000014944034434460C6688C6826EA0C06A5
:10041000AC403443C4604C68E40056D52F4C25688A
:1004200045F480452560246822F0030504F48044E7
:1004300000942B4C2E19D6F8084895072F0F09FA6F
:1004400007F5AC43274DA84201D1002515E0264D04
:10045000A84201D1012510E0244DA84201D1022576
:100460000BE0234DA84201D1032506E0214DA8420F
:1004700002D1042501E028E00725BD402543C6F848
:100480000858DBF800405D464E689C43F60300D5F3
:100490001C432C60DEF8004075464E689C43B60352
:1004A00000D51C432C600C4D08352C684E689C43CD
:1004B000F60200D51C432C60074D0C352C684E68A5
:1004C0009C43B60200D51C432C60521C102AFFF43A
:1004D0005DAFBDE8F88F0000003C014044380240A9
:1004E00000300140000002400004024000080240C9
:1004F000000C0240001002400069084000D00120BA
:10050000704742694A40426170470AB18161704751
:100510000904FBE701488068704700000C000020D8
:100520000248816802781144816070470C00002005
:100530000B4810B5016841F400710160016841F495
:1005400080610160016841F480710160032000F066
:10055000B1F8002000F006F800F03EF8002010BDD1
:10056000003C024010B5014688B000221D2000F07A
:1005700081F81D2000F072F813480024016841F052
:1005800002010160006805A900F0020006906846BB
:1005900000F03AF900F05EF90C494000B0FBF1F1CF
:1005A0000C480B4A491E026040F2E732C0E90324BE
:1005B000C0E9011400F04EFB10B1012008B010BDDD
:1005C000044800F063FBF9E74038024040420F0066
:1005D00000040040BC0000201F4808B5016841F439
:1005E00080410160006800F4804000901A48001FBC
:1005F000016841F080510160006800F08050009077
:10060000032000F057F8002211466FF00B0000F0B5
:1006100031F8002211466FF00A0000F02BF800229A
:1006200011466FF0090000F025F800221146501F16
:1006300000F020F800221146101F00F01BF80022E5
:100640000F21901E00F016F800220F21BDE808408F
:10065000501E00F00FB800004438024000F01F02A6
:10066000012191404009800000F1E020C0F8001114
:1006700070470000F0B40E4B1B680C46C3F3022316
:10068000C3F10705042D00D90425191D072901D23E
:10069000002300E0DB1E012606FA05F1491E214079
:1006A00099409E40761E16403143F0BC00F0A6BC37
:1006B0000CED00E0064900F0070208684FF6FF0362
:1006C000184040EA0220034A1043086070470000C7
:1006D0000CED00E00000FA052DE9F0470E4605009C
:1006E00065D0DFF81481D8F80000F7B200F00F00F1
:1006F000B04207D288F80070D8F8000000F00F0070
:10070000B04254D128683D4C810712D5400703D52B
:10071000206840F4E05020602878000703D5206866
:1007200040F4604020602068A96820F0F000084391
:1007300020602878C0072DD0304968680839012822
:1007400012D0022813D0032811D009688907002984
:100750002DDA216821F0030101432160FFF7DAFE61
:10076000814641F2883A0EE009688903EFE709689B
:100770008901ECE7FFF7CEFEA0EB0901514502D954
:100780000320BDE8F0872068696800F00C00B0EB3A
:10079000810FEFD1D8F80010404601F00F01B142AF
:1007A00007D90770006800F00F00B04201D00120A7
:1007B000E7E72878400705D52068E96820F4E0508D
:1007C000084320602878000706D52068296920F4AE
:1007D000604040EAC100206000F05CF82168084AEF
:1007E000C1F30311515CC840064908600020FFF7BF
:1007F000B9FE0020C5E70000003C02400838024076
:10080000FC270008180000200F2202600C4A136821
:1008100003F003034360136803F0F003836013687D
:1008200003F4E053C36012684FF4E05303EAD202CA
:1008300002610448006800F00F0008607047000083
:1008400008380240003C0240014800687047000040
:10085000180000200448054900680968044AC1F3EB
:100860008221515CC84070471800002008380240BF
:100870000C2800080448054900680968044AC1F3C7
:100880004231515CC84070471800002008380240CF
:100890000C280008154810B5006810F00C02144828
:1008A00013D04110042A0FD0082A0ED10F4C241F58
:1008B0002268236802F03F025B0207D52068C0F37C
:1008C0008810A0FB010106E0084610BD2168C1F3B5
:1008D0008811A1FB00010023FFF7D6FC2168C1F3BA
:1008E0000141491C4900B0FBF1F010BD083802403D
:1008F0000024F4002DE9F84F050076D02878DFF8C1
:10090000F8B2BE4CC00749D0DBF800105846C1F31E
:100910008101012908D00068C0F3810002280AD1B2
:10092000201D0068400206D52068800336D568681F
:100930000028E2D032E06868B0F5803F10D0B0F512
:10094000A02F206810D020F480302060206820F490
:10095000802020606868A0B1FFF7DCFD06460CE04F
:10096000206840F48030F4E740F480202060F7E70E
:10097000FFF7D0FD801B642873D820688003F7D56B
:100980000CE0FFF7C7FD064605E000BFFFF7C2FD1C
:10099000801B6428F0D820688003F7D42878DFF81B
:1009A000608280074FF000093ED5DBF80010584602
:1009B00011F00C0F09D00068C0F3810002280BD1A0
:1009C0008D48001F0068400206D42068800715D5B6
:1009D000E868012809D111E0E868B8B10120C8F839
:1009E0000000FFF797FD064605E002E1FFF792FDE4
:1009F000801B0228C0D820688007F7D520682969A5
:100A000020F0F80040EAC10020600DE0C8F8009036
:100A1000FFF780FD064604E0FFF77CFD801B0228FF
:100A20001FD820688007F7D42878000722D5724E97
:100A3000744869696C3671B101210160FFF76AFD84
:100A4000074604E0FFF766FDC01B022809D830689E
:100A50008007F7D50EE0C0F80090FFF75BFD074672
:100A600005E083E0FFF756FDC01B02287ED8306802
:100A70008007F7D42878400768D5DFF87CA10027E5
:100A80000AF1380ADAF80000C0000BD4DAF80010D6
:100A900041F08051CAF80010DAF80000012700F098
:100AA00080500090584E3068C00510D4306840F433
:100AB00080703060FFF72EFD009005E0FFF72AFD03
:100AC0000099401A022851D83068C005F6D54A4E20
:100AD000A868683601280FD00528306810D020F0AB
:100AE00001003060306820F004003060A868B8B1C0
:100AF000FFF710FD00900FE0306840F00100F4E7D0
:100B000040F004003060F7E7FFF704FD0099411A58
:100B100041F28830814264D830688007F4D50EE015
:100B2000FFF7F8FC009007E0FFF7F4FC0099411A8A
:100B300041F28830814254D830688007F4D42FB114
:100B4000DAF8001021F08051CAF80010A869C0B38B
:100B5000DBF80010C1F3810102294AD0022848467F
:100B600007D0C8F86000FFF7D5FC00E039E0054683
:100B70003AE04746C8F86000FFF7CCFC064604E0C0
:100B8000FFF7C8FC801B02282BD820688001F7D40F
:100B9000D5E907010843A96A1C4A490802EB01414B
:100BA0006A6A41EA8211084395F82C1040EA016113
:100BB0001148001F016001203866FFF7ABFC0546B5
:100BC00005E014E0FFF7A6FC401B022809D82068C6
:100BD0008001F7D50BE000BFFFF79CFC401B02280B
:100BE00002D90320BDE8F88F20688001F4D40020EA
:100BF000F8E70120F6E7000008380240003802401C
:100C000000004742800E4742007000400000FFFF96
:100C10004FF0E0210428086903D020F004000861A7
:100C2000704740F00400FAE710B5401EB0F1807F35
:100C300001D3012010BD4FF0E02460610F21601747
:100C400000F0DCF90020A06107202061002010BD29
:100C50007047704710B5040003D094F8390010B104
:100C600007E0012010BD002084F83800204600F085
:100C70000CF8022084F83900211D206800F050FA99
:100C8000012084F83900002010BD70470168CA684F
:100C900042F00102CA600068016841F00101016090
:100CA00000207047704770B50446006801694FF036
:100CB0000005C943890715D4C168C943890711D400
:100CC000E91E0161012020762068806980072046A6
:100CD00002D0FFF7E7FF04E000F098F8204600F0AC
:100CE00096F8257620680169C943490717D4C16879
:100CF000C943490713D46FF0040101610220207633
:100D00002068806910F4407F204602D0FFF7CAFFB8
:100D100004E000F07BF8204600F079F825762068A2
:100D20000169C943090716D4C168C943090712D428
:100D30006FF008010161042020762068C0698007F7
:100D4000204602D0FFF7AEFF04E000F05FF8204637
:100D500000F05DF8257620680169C943C90617D4FB
:100D6000C168C943C90613D46FF01001016108209E
:100D700020762068C06910F4407F204602D0FFF73B
:100D800091FF04E000F042F8204600F040F825769C
:100D900020680169C943C90708D1C168C943C907A7
:100DA00004D1891E0161204600F032F820680169F3
:100DB000C943090609D4C168C943090605D46FF0BF
:100DC000800101612046FFF743FF20680169C943A4
:100DD000490609D4C168C943490605D46FF04001EA
:100DE0000161204600F01EF820680169C9438906A8
:100DF0000BD4C168C943890607D46FF02001016193
:100E00002046BDE87040FFF724BF70BD70477047B3
:100E100000680349884201D1FFF782BB7047000098
:100E200000040040704770B5040004D094F8390005
:100E3000002510B106E0012070BD84F8385020462E
:100E400000F022F8242084F839002068C16821F4D9
:100E50000051C160204600F01BFA2068016921F4AE
:100E6000904101612068416921F02A0141612068B7
:100E7000C16841F40051C160E563202084F8390065
:100E800084F83A00002070BD00B500680E4987B0B4
:100E9000884216D10D48016841F4003101600068B4
:100EA000694600F4003005900C200090022001906B
:100EB0000120029003200390072004900448FFF7CC
:100EC00057FA07B000BD000000440040403802401F
:100ED000000002402DE9F843044690F839001F460F
:100EE00016460D46202850D1A5B19EB194F8380081
:100EF00001284AD0012084F838004FF00008C4F8D7
:100F00003C80212084F83900FFF704FBA684814649
:100F1000E68426E00120BDE8F883E08C401EE084F2
:100F2000A0684B46B0F5805F4FF000024FF08001A3
:100F30002046009703D000F001FBE8B90DE000F077
:100F4000FDFAC8B928882168C0F308004860206904
:100F500008B16D1C05E0AD1C03E0216815F8010B1C
:100F60004860E08C0028D8D14B4600224021204622
:100F7000009700F0E3FA08B10320CCE7202084F8C2
:100F8000390084F838800020C5E70220C3E700005C
:100F900030B5174887B00024016841F004010160B2
:100FA000016801F004010591016841F0010101604F
:100FB0000068104D00F001000590224620212846CF
:100FC000FFF7A3FA4FF40050CDE9000469460A4840
:100FD0000294FFF7CDF9202000900120CDE9010413
:100FE000694628460394FFF7C3F907B030BD0000F7
:100FF0003038024000000240000802400907090E94
:10100000002806DA00F00F0000F1E02080F8141D3F
:10101000704700F1E02080F80014704700F025BB15
:1010200030B5254893B00024016841F0805101603B
:10103000006800F0805011902048016821F4404180
:1010400041F4004101600068022500F44040119025
:10105000012003901020009506950490CDE90740EB
:101060004FF4A870099004200A9007200B9068465E
:10107000FFF740FC00B1FEE70F20CDE90C054FF46F
:101080008050CDE90E4002210CA81094FFF724FBFC
:1010900000B1FEE7FFF7D8FB4FF47A71B0FBF1F037
:1010A000FFF7C2FD0420FFF7B3FD00220F21501E01
:1010B000FFF7E0FA13B030BD403802400070004046
:1010C0001048016841F4700101600F48016841F067
:1010D000010101600C4A00210832116002680B4BCB
:1010E0001A400260031D0A4A1A60026822F4802234
:1010F000026005480C3001600249580680390860DA
:101100007047000088ED00E000380240FFFFF6FE67
:10111000103000240148FFF7C6BD0000BC000020CD
:10112000F0B502681B4B1C4C9F031C4D1C4E984293
:1011300007D0B84205D0A04203D0A84201D0B042A7
:1011400004D122F0700C4A6842EA0C02984210D096
:10115000B8420ED0A0420CD0A8420AD0B04208D06B
:10116000104CA04205D0104CA04202D00F4CA0421F
:1011700003D122F44074CA68224302608A68C262C2
:101180000A688262984201D10969016301214161C3
:10119000F0BD0000000001400004004000080040D5
:1011A000000C004000400140004401400048014064
:1011B00086B0142211A16846FFF797F8144D154C1C
:1011C0004FF0FF364FF47A7720212846FFF799F940
:1011D000002332461946A06800F096FF052314222A
:1011E00069460D48FFF776FE00231A461946A068A7
:1011F00001F084F8384600F029FAE5E748656C6CA0
:101200006F2046726F6D20546872656164310D0AFB
:1012100000000240000000207C00002086B0142264
:1012200013A16846FFF761F8164E174C4FF40055AE
:101230004FF0FF374FF47A7829463046FFF75CF9D4
:101240000028F9D100233A461946A06800F05CFF57
:101250000523142269460D48FFF73CFE00231A4679
:101260001946A06801F04AF8404600F0EFF9E3E7BC
:1012700048656C6C6F2046726F6D205468726561B2
:1012800064320D0A00080240000000207C000020AB
:101290002DE9F04104460068016921F44052E168FB
:1012A000114301612168C86849F20C6290432369C7
:1012B000A268E5691A4363692B431A430243CA6073
:1012C0002168486920F44072A06910434861E169CF
:1012D0006425B1F5004F9748974A21684FF03208CE
:1012E0003FD0914201D081427CD1FFF7C3FA00EB9D
:1012F000C00101EB001061688900B0FBF1F6FFF757
:10130000B9FA00EBC00101EB001061688900B0FB85
:10131000F1F0B0FBF5F06FF01801484306EB8001E7
:1013200008EB0110B0FBF5F000F0F006FFF7A2FAB1
:1013300000EBC00101EB001061688900B0FBF1F027
:10134000B0FBF5F006EB0016FFF794FA00EBC001D6
:1013500001EB001061688900B0FBF1F7FFF78AFA32
:10136000D2E0914201D081423DD1FFF783FA00EBF8
:10137000C00101EB001061684900B0FBF1F0B0FB67
:10138000F5F00601FFF776FA00EBC00101EB001063
:1013900061684900B0FBF1F7FFF76CFA00EBC001A0
:1013A00001EB001061684900B0FBF1F0B0FBF5F013
:1013B0006FF01801484307EB800108EBC100B0FB58
:1013C000F5F000F0F80006EB4006FFF753FA00EBEB
:1013D000C00101EB001061684900B0FBF1F7FFF7B5
:1013E00049FA3CE055E0FFF735FA00EBC00101EBAC
:1013F000001061684900B0FBF1F0B0FBF5F00601A8
:10140000FFF728FA00EBC00101EB0010616849000A
:10141000B0FBF1F7FFF71EFA00EBC00101EB001083
:1014200061684900B0FBF1F0B0FBF5F06FF0180116
:10143000484307EB800108EBC100B0FBF5F000F07A
:10144000F80006EB4006FFF705FA00EBC00101EBE0
:10145000001061684900B0FBF1F7FFF7FBF900EB02
:10146000C00101EB001061684900B0FBF1F0B0FB76
:10147000F5F06FF01801484307EB800108EBC1005D
:10148000B0FBF5F000F00700216830448860BDE84B
:10149000F081FFF7DFF900EBC00101EB001061689C
:1014A0008900B0FBF1F6FFF7D5F900EBC00101EBC5
:1014B000001061688900B0FBF1F0B0FBF5F06FF04F
:1014C0001801484306EB800108EB0110B0FBF5F072
:1014D00000F0F006FFF7BEF900EBC00101EB0010D1
:1014E00061688900B0FBF1F0B0FBF5F006EB001687
:1014F000FFF7B0F900EBC00101EB00106168890053
:10150000B0FBF1F7FFF7A6F900EBC00101EB00100B
:1015100061688900B0FBF1F0B0FBF5F06FF01801E5
:10152000484307EB800108EB0110B0FBF5F000F039
:101530000F00A9E700140140001001402DE9F0411F
:10154000984617460E460446069D1DE0681C1BD0B3
:101550002DB1FEF7DFFFA0EB0800A84214D92068E8
:10156000C16821F4D071C1602068416921F0010196
:101570004161202084F8390084F83A00002084F882
:1015800038000320BDE8F0812068006836EA0000DA
:1015900004D00020B842D9D00020F3E70120F9E7B9
:1015A00002E008C8121F08C1002AFAD1704770472C
:1015B000002001E001C1121F002AFBD1704700008A
:1015C0008CB0FEF7B5FFFFF72BFDFFF7E1FC1948E4
:1015D0001749002401604FF4E131C0E901140C21E6
:1015E000C460C0E904418461C461FFF71CFC00B120
:1015F000FEE70AA80A9400F035F80F4C14220F49B0
:10160000A0606846FEF771FE0021684600F037F8DA
:101610000A4920601422143105A8FEF766FE002155
:1016200005A800F02CF8606000F017F8FEE7000055
:10163000004400407C00002000000020D427000867
:1016400001460020842900D0C81C704710B500B99D
:10165000012000F09BFB002010BD10B500F02EFC17
:10166000002010BD012000F019BD10B500F058FF9A
:10167000012803D0BDE8104000F0FABC10BD3EB513
:1016800004460D46B0F90800FFF7DAFF02A9CDE9DC
:101690000001208A2B4682B2D4E9001000F014FF2A
:1016A000012801D000203EBD02983EBD2DE9F04149
:1016B000184C0F460546E6682068001D00F0B0FA99
:1016C00038B9206890F82C100120884021698143A6
:1016D0002161681C07D137B12168BDE8F0410E488F
:1016E000091D00F0D5BA20683544B542456021682F
:1016F00005D2A06BBDE8F041091D00F0B1BA606BE6
:10170000091D00F0ADFAA06A854200D2A562BDE8CD
:10171000F081000040000020D43D00202DE9F04180
:10172000054600F0C1FA2E4CA068401CA06020685D
:101730002C4F10B1606940B32DE02560A0680128EE
:1017400029D1002606EB860007EB800000F07AFA2C
:10175000761C072EF6D323488C3000F073FA21480C
:10176000A03000F06FFA1F48B43000F06BFA1D484B
:10177000C83000F067FA1B48DC3000F063FA194803
:101780008C3060631430A06305E02068E96AC06AA9
:10179000884200D82560606A401C6062E96A0120C6
:1017A000226988401043206101EB810007EB800033
:1017B000291D00F06DFA00F097FA606900280CD03E
:1017C0002068E96AC06A884207D207494FF0805012
:1017D0000860BFF34F8FBFF36F8FBDE8F08100004B
:1017E00040000020F83C002004ED00E070B5114EF0
:1017F000114C17E000F096FB3068B8B100F088FF9C
:1018000000F052FAF068C568281D00F009FAA068D7
:10181000401EA0606068401E606000F065FA2846C7
:1018200000F055F860680028E4D170BD00F070FF4A
:10183000F8E70000C03D00204000002030B4026CFA
:101840000B46002A0BD0C1681144C1604468A14214
:1018500001D30168C16030BC1846FEF746BD30BCFC
:1018600070472DE9F041856B174604460026026C4F
:1018700082B1C7B1E068FEF738FDE168206C091A53
:10188000E1602268914202D26168081AE060022F8A
:1018900016D017E02068A8B9606800F0B3FE0646CD
:1018A000002060600EE0A068FEF71FFD216CA068BC
:1018B0000844A0606168884204D32068A06001E009
:1018C00005B16D1E6D1CA5633046BDE8F08110B5F5
:1018D0000446006B00F01CFA2046BDE8104000F002
:1018E00017BA000010484FF47051420706D0C01DCF
:1018F0000D4920F00700411AC1F570510B4A002331
:101900000144C2E900030839103A21F007011160CF
:101910004B600B600B1AC0E9001393604FF000405E
:101920005360D06070470000F80000202C000020B9
:10193000074C4FF08056074DFFF758FF20680128ED
:10194000FAD92E60BFF34F8FBFF36F8FF4E700001B
:10195000F83C002004ED00E02DE9F0479A46DDE96F
:10196000098481466FF00303206B03EB820210446D
:10197000089D20F00706700707D0502080F31188DB
:10198000BFF34F8FBFF36F8FFEE723180A5C83F816
:1019900034200A5C12B1401C1028F6D3002784F8CA
:1019A0004370072D00D30625E562C4E91157201DB9
:1019B00000F053F904F1180000F04FF92461C5F16B
:1019C00007006462A061E76484F85070524649469B
:1019D000304600F00FF92060B8F1000F01D0C8F8D0
:1019E0000040BDE8F087000030B5114900E0114625
:1019F0000A688242FBD34B685C18844203D140687A
:101A000018444860084643681C18944209D1084CA1
:101A1000103C2468A24209D052681A4442600A6805
:101A200012680260814200D0086030BD0460F9E7AE
:101A30002C00002010B5044600F036F9A06B28B148
:101A40005FF0000400F050F9204610BD0124F9E7D2
:101A50000648416B096829B1416BC968C968496882
:101A6000816270474FF0FF31FAE70000400000202C
:101A700008484068401C4FF0500080F3118804D0A3
:101A8000BFF34F8FBFF36F8FFEE7BFF34F8FBFF3EF
:101A90006F8FFEE7340000202DE9F041044600F08E
:101AA00003F994F9455004F1240609E0606A48B14D
:101AB000304600F0F3FD08B100F08EF96D1E6DB2F6
:101AC000002DF3DC4FF0FF3684F8456000F00CF990
:101AD00000F0EAF894F9445004F1100709E0206995
:101AE00048B1384600F0DAFD08B100F075F96D1E16
:101AF0006DB2002DF3DC84F84460BDE8F04100F0E5
:101B0000F3B800002DE9F0410546002700F00AFA7D
:101B1000314E306808B9FFF7E5FEF06805424BD159
:101B2000C5B3083568070ED005F00700C0F10800FE
:101B30000544680707D0502080F31188BFF34F8F0A
:101B4000BFF36F8FFEE72DB37068854234D822480B
:101B5000103001460C6801E020460C466168A9423D
:101B600002D221680029F7D131688C4224D007685D
:101B70002168016060680837411B10290FD960197E
:101B8000420708D0502080F31188BFF34F8FBFF376
:101B90006F8FFEE710E041606560FFF725FF616829
:101BA0007068401A7060B268904200D2B060F0680D
:101BB00001430020C4E9000100F0AAFD780707D026
:101BC000502080F31188BFF34F8FBFF36F8FFEE774
:101BD0003846BDE8F08100001C0000200449086878
:101BE00018B10868826C521C826408687047000053
:101BF0004000002010B5031F4FF080741C601B1FB5
:101C000021F001011960191F044B0B6014390A609F
:101C1000091F6FF0020244380A6010BD711A0008F3
:101C2000D0E9013201699A60D0E901235A604A681B
:101C3000824201D182684A60002202610868401E27
:101C40000860704700F108014FF0FF32C0E901124F
:101C5000C16001610021016070470021016170478E
:101C600030B50B685A1C02D000F1080202E002698C
:101C700004E02246546825689D42FAD953684B60B7
:101C800099608A60516008610168491C016030BD3B
:101C900042684A6093688B609368596091600861FC
:101CA0000168491C01607047502080F31188BFF320
:101CB0004F8FBFF36F8F0A494868401C4860012866
:101CC0000CD10848006810F0FF0F07D0502080F3B7
:101CD0001188BFF34F8FBFF36F8FFEE7704700008F
:101CE0003400002004ED00E00849486828B1401E97
:101CF000486001D180F311887047502080F311882B
:101D0000BFF34F8FBFF36F8FFEE70000340000205A
:101D100070B5002827D0144DA0F108046168E86868
:101D2000014207D1502080F31188BFF34F8FBFF3DA
:101D30006F8FFEE722683AB1502080F31188BFF31D
:101D40004F8FBFF36F8FFEE78143616000F0EAF8C9
:101D500060686968084468602046FFF745FEBDE892
:101D6000704000F0D5BC70BD1C00002006484FF448
:101D70007A710068B0FBF1F14FF0E020491E41613B
:101D800007210161704700001800002010B5020013
:101D900014D00F48006B38B1502080F31188BFF386
:101DA0004F8FBFF36F8FFEE700F0BCF800211046A5
:101DB000FFF77CFC00F0ACFC002807D105494FF090
:101DC00080500860BFF34F8FBFF36F8F10BD0000CE
:101DD0004000002004ED00E001490120C861704787
:101DE0004000002010B50C4650B10949096818316F
:101DF000FFF736FF2046BDE810400121FFF756BC33
:101E0000502080F31188BFF34F8FBFF36F8FFEE731
:101E10004000002070B5040039D01D4DE06A2968EB
:101E2000C96A884233D2A069002804DB2868C06AE6
:101E3000C0F10700A061E16A164E01EB8101606903
:101E400006EB810188421FD1201DFFF7E9FE012129
:101E500050B9E06A00EB800256F8222022B92A69C4
:101E600001FA00F082432A612868C06AE0622A69A8
:101E700081401143296100EB800006EB8000211DA9
:101E8000BDE87040FFF704BF2868C06AE06270BD1B
:101E900040000020F83C002028B107490A6A02608F
:101EA000C96841607047502080F31188BFF34F8F9D
:101EB000BFF36F8FFEE70000400000201CB51548FF
:101EC0000024CDE900402346802213A1144800F0ED
:101ED000FBFA012809D0401C1AD1502080F3118848
:101EE000BFF34F8FBFF36F8FFEE7502080F3118851
:101EF000BFF34F8FBFF36F8F06484FF0FF312C3881
:101F0000816201214161C460BDE81C4000F040B81D
:101F10001CBD00006C00002049444C45000000003E
:101F2000311900080248016B491C01637047000029
:101F3000400000201448016B11B10121C1617047BC
:101F40000021C1610169B1FA81F1C1F11F0101EB09
:101F500081020E4951F822306BB101EB820101F18F
:101F600008034A6852684A609A4201D152684A603E
:101F7000D16801607047502080F31188BFF34F8F04
:101F8000BFF36F8FFEE7000040000020F83C002008
:101F90001CB532480168324A914207D1502080F383
:101FA0001188BFF34F8FBFF36F8FFEE700682C4996
:101FB000491E884207D1502080F31188BFF34F8F0C
:101FC000BFF36F8FFEE7274908780190FF20087064
:101FD00008788DF800009DF800009DF8002000F0C2
:101FE000F000904207D0502080F31188BFF34F8F4C
:101FF000BFF36F8FFEE79DF800001B4A00F0500012
:1020000010700720906005E09DF800305B008DF8AF
:102010000030401E9DF800301B06F5D4000200F48D
:10202000E0609060019808700C482030016841F42D
:1020300070010160016841F070410160FFF796FE98
:1020400000205060FEF7D0F80848016841F0404198
:102050000160FEF7B9F800201CBD000000ED00E0B3
:1020600071C20F4100E400E03400002034EF00E0D2
:1020700010B5502080F31188BFF34F8FBFF36F8FDF
:1020800000F05CFA18B104494FF08050086000205D
:1020900080F3118810BD000004ED00E010B5024689
:1020A0000021012000F00CF8041E07D0002141603F
:1020B00001600B460A46C16000F020F9204610BDC1
:1020C00070B50E46050013D0D6B105FB06F04830BA
:1020D000FFF718FD040009D004F1480120468EB135
:1020E0000160C0E90F56012100F0C4F8204670BD20
:1020F000502080F31188BFF34F8FBFF36F8FFEE73F
:102100000020E4E70060ECE72DE9FF4F002683B0F4
:102110009B468A46040003D0BAF1000F08D011E0B4
:10212000502080F31188BFF34F8FBFF36F8FFEE70E
:10213000206C38B1502080F31188BFF34F8FBFF36C
:102140006F8FFEE700F0ECF9DFF824814FF0000913
:102150004FF0805748B9059838B1502080F3118866
:10216000BFF34F8FBFF36F8FFEE7FFF79DFDA56BAA
:1021700045B351462046E668FFF760FBBBF1000F10
:1021800013D0E660606A50B104F1240000F086FAD2
:1021900028B1C8F80070BFF34F8FBFF36F8FFFF700
:1021A000A3FD012007B0BDE8F08F6D1EA563206878
:1021B00010B9FFF713FD606020690028EFD004F12B
:1021C0001000E3E7059808B11EB106E0FFF78CFDAB
:1021D00027E06846FFF760FE0126FFF785FDFFF761
:1021E000A1FEFFF761FD94F94400401C01D184F881
:1021F000449094F94500401C01D184F84590FFF7C4
:1022000073FD05A9684600F029F9002820460AD088
:10221000FFF742FC00F07CFA2046FFF70BFC002899
:10222000A3D00020BEE7FFF705FCD8B1206830B985
:10223000FFF73AFD6068FFF7EDFDFFF755FD04F18C
:1022400024000599FFF7CEFD2046FFF725FC00F09E
:102250005FFA002889D1C8F80070BFF34F8FBFF331
:102260006F8F82E72046FFF717FC00F051FA7CE7FA
:1022700004ED00E070B50D46040025D0FFF714FD15
:10228000D4E90F20216802FB001161600021A163E5
:102290002168A1600A46D4E90F01401E00FB01211C
:1022A000E16021464FF0FF3001F8440F487004F11F
:1022B00010008DB1FFF7C6FC04F12400FFF7C2FC4B
:1022C000FFF712FD012070BD502080F31188BFF38D
:1022D0004F8FBFF36F8FFEE721690029F0D000F028
:1022E000DDF90028ECD004494FF080500860BFF3BE
:1022F0004F8FBFF36F8FE3E704ED00E02DE9FF4759
:1023000082B01D468A464FF00008040003D0BAF19F
:10231000000F08D011E0502080F31188BFF34F8FD9
:10232000BFF36F8FFEE7206C38B1502080F3118827
:10233000BFF34F8FBFF36F8FFEE7022D0AD1E06B23
:10234000012807D0502080F31188BFF34F8FBFF3CF
:102350006F8FFEE700F0E4F83F4F4FF000094FF0B9
:10236000805648B9049838B1502080F31188BFF3E3
:102370004F8FBFF36F8FFEE7FFF796FCA06BE16B0B
:10238000884207D3022D05D00498D0B1B8F1000FD0
:102390001AD01EE02A4651462046FFF762FA616ACB
:1023A00019B104F1240000F079F920B13E60BFF3C7
:1023B0004F8FBFF36F8FFFF797FC012006B0BDE88A
:1023C000F087FFF791FC22E06846FFF765FD4FF0CC
:1023D0000108FFF789FCFFF7A5FDFFF765FC94F9FD
:1023E0004400401C01D184F8449094F94500401CFD
:1023F00001D184F84590FFF777FC04A9684600F006
:102400002DF830B12046FFF747FB00F081F900209E
:10241000D4E7FFF749FCA06BE16B884213D1FFF7CB
:1024200063FC04F110000499FFF7DCFC2046FFF781
:1024300033FB00F06DF900289ED13E60BFF34F8F53
:10244000BFF36F8F98E7FFF74FFC2046FFF724FBA1
:1024500000F05EF990E7000004ED00E070B50D4675
:10246000040019D005B3FFF71FFC164AD16828688D
:10247000431C0FD02368126A934202D062688A42DA
:102480001AD96268891A814216D2401A28602046F9
:10249000FFF702FD002410E0502080F31188BFF305
:1024A0004F8FBFF36F8FFEE7502080F31188BFF38B
:1024B0004F8FBFF36F8FFEE70124FFF715FC204617
:1024C00070BD0000400000202DE9FF5F8346DDE97C
:1024D0000E87994616468A469000FFF713FB0500C3
:1024E0001AD05420FFF70EFB040012D02563002100
:1024F000CDE90241CDE900874B4632465146584668
:10250000FFF72AFA2046FFF709F9012004B0BDE8D9
:10251000F09F2846FFF7FCFB4FF0FF30F6E7000086
:102520000548416919B1006B18B1002070470120BE
:102530007047022070470000400000202DE9F04164
:102540002E4C0027206B40B1A069401CA061E069BF
:1025500000B101273846BDE8F081E668761CE660E8
:1025600013D1606B006838B1502080F31188BFF33D
:102570004F8FBFF36F8FFEE7606BA16B6163A0634A
:10258000206A401C2062FFF763FAA06ADFF87080BF
:10259000864209D3606B006880B1606BC068C56813
:1025A000686886420DD2A0622068C06A00EB800194
:1025B00058F821000128CAD90127C8E74FF0FF3099
:1025C000F1E7281DFFF72CFBA86A18B105F11800E8
:1025D000FFF726FBE86A012122698140114321614E
:1025E00000EB800108EB8100291DFFF751FBE86A31
:1025F0002168C96A8842CDD30127CBE7400000207B
:10260000F83C002070B504004FF0000140D0214D8F
:102610002868844207D0502080F31188BFF34F8F81
:10262000BFF36F8FFEE7A06C38B1401EA064636CEF
:10263000E26A9A422CD040B12AE0502080F31188FF
:10264000BFF34F8FBFF36F8FFEE7201DFFF7E8FA50
:10265000114A012150B9E06A00EB800352F823309F
:1026600023B92B6901FA00F083432B61606CE062AF
:10267000C0F10700A061E06A2B698140194329611C
:1026800000EB800002EB8000211DFFF701FB012120
:10269000084670BD40000020F83C00202DE9F041C4
:1026A000C068C468ACB104F118000746FFF7B8FA77
:1026B000154D286B0126A0B139461448FFF7E8FAFA
:1026C000E06A2968C96A88421CD90120EE61BDE828
:1026D000F081502080F31188BFF34F8FBFF36F8FCD
:1026E000FEE7201DFFF79CFAE16A2A6906FA01F06D
:1026F0001043286101EB81000449B43901EB8000EB
:10270000211DDBE70020E2E740000020AC3D002077
:102710002DE9F0472C4D00242746286B38B1FFF7F0
:10272000C3FA286B401E2863286B40B146E0502056
:1027300080F31188BFF34F8FBFF36F8FFEE7A96857
:10274000224E0120D1B3A6F1B40980463068E8B129
:10275000F068C46804F11800FFF762FA201DFFF763
:102760005FFAE06A2A6908FA00F11143296100EB77
:10277000800109EB8100211DFFF78AFAE06A2968D0
:10278000C96A8842E2D3C5F81C80DFE70CB1FFF7C5
:102790005FF9AC6944B14646FFF7D0FE00B1EE6187
:1027A000641EF9D10020A861E86938B10849012701
:1027B00038070860BFF34F8FBFF36F8FFFF794FAAE
:1027C0003846BDE8F087000040000020AC3D002006
:1027D00004ED00E020280008B1110008000000000E
:1027E0000000000080000000142800081D120008EE
:1027F000FDFF00000000000080000000000000005D
:1028000000000000010203040607080900000000A0
:10281000010203046D795461736B303200000000D3
:1028200064656661756C745461736B004C280008B4
:10283000000000207C000000A0150008C828000847
:102840007C0000206C410000B01500080000000072
:102850000000000000000000010000001000000067
:10286000000000000024F400000000000000000050
:102870000000000000000000000000000000000058
:1028800000000000AAAAAAAA0000000000000000A0
:102890000000000000000000000000000000000038
:1028A0000000000000000000000000000000000028
:1028B0000000000000000000000000000000000018
:0828C000000000000000000010
:040000050800019559
:00000001FF
